:020000040800F2
:1000000000500020E5970008ED950008F1950008E4
:10001000F5950008F9950008FD950008000000001E
:100020000000000000000000000000000196000831
:100030000596000800000000099600080D960008CB
:100040002D9800082D9800082D9800082D9800087C
:100050002D9800082D9800082D9800082D9800086C
:100060002D9800082D9800082D9800082D9800085C
:100070002D9800082D9800082D9800082D9800084C
:100080002D9800082D9800082D9800082D9800083C
:100090002D9800082D9800082D9800082D9800082C
:1000A0002D9800082D9800082D9800082D9800081C
:1000B0002D9800082D9800082D9800082D9800080C
:1000C0002D9800082D9800082D9800082D980008FC
:1000D0002D980008119600082D9800082D9800080A
:1000E0002D9800082D9800082D98000800000000A9
:1000F0000000000000000000000000000000000000
:0C01000000000000000000005FF808F1A3
:10011000044B05481B1A062B02D9044B03B11847A0
:10012000704700BFF7000020F4000020000000002E
:1001300005490648091A891001EBD171491002D00E
:10014000034B03B118477047F4000020F40000206F
:100150000000000010B5064C237843B9FFF7D8FF24
:10016000044B13B10448AFF300800123237010BD8A
:10017000F4000020000000003098000808B5084B8B
:100180001BB108490848AFF300800848036813B959
:10019000BDE80840CCE7064B002BF9D09847F7E7BD
:1001A00000000000F800002030980008F400002053
:1001B0000000000008B5C0F3C7537F3B162B014673
:1001C0000EDC002B024612DB0C481841014205D020
:1001D0004FF480011941114421EA0001084608BD8D
:1001E000802BFBD100F006FF0146084608BD013315
:1001F00000F00041F2D141F07E51EFE7FFFF7F00B8
:1002000000F050B8F0B58BB0044600F0DDF8234B99
:10021000064693F900506B1C0AD02146204601F097
:10022000B7F9074620B90021204601F089F910B935
:1002300030460BB0F0BD0122194B20468DE80C0072
:10024000089700F093FB0022CDE90401CDE90201FB
:100250000023ADB11046194600F006FD022DCDE990
:1002600006010FD102F07EF921230360089B7BB9C0
:10027000DDE9060100F068FE064630460BB0F0BD31
:10028000CDE90623684600F0F3F80028EED1E9E74F
:1002900002F068F9089B0360EAE700BF0000002055
:1002A000DCA70008F8B50C4621F00041B1F1FF4F82
:1002B000034614DC20F00046B6F1FF4F07460EDC83
:1002C000B4F17E5F3DD0A51705F0020545EAD07573
:1002D00056B9022D30D0032D30D13248F8BD194621
:1002E000204600F087FEF8BD01B3B1F1FF4F2CD0DE
:1002F000B6F1FF4F1AD0711AC9153C291ADC002C2F
:1003000039DB2146184601F031F800F0C7F900F05A
:10031000B1F8012D2CD0022D22D0002D2FD0224952
:1003200000F068FE214900F063FEF8BD002F06DBF7
:100330001F48F8BD1E48ECE71C48F8BDF8BD1D4835
:10034000F8BDBDE8F84000F095B8B6F1FF4F17D002
:10035000022DF1D0032DC0D0012D19D00020F8BD01
:10036000114900F047FE0146104800F041FEF8BD7B
:1003700000F10040F8BD3C31C3DA0020C9E7F8BD08
:10038000022D0CD0032D08D0012D04D00A48F8BD51
:100390004FF00040F8BD0948F8BD0948F8BD0948CC
:1003A000F8BD00BFDB0F49C02EBDBB33DB0F49409A
:1003B000DB0FC93FDB0FC9BFDB0F493FDB0F49BF75
:1003C000E4CB16C0E4CB164020F00042B2F1FF4F60
:1003D000F8B504462FD26AB3002803463EDBB2F5D7
:1003E000000F4FEAE0502DD300267F38C2074FF0B0
:1003F000190431464FF08072C3F3160343F400032F
:1004000048BF5B0047105B008D189D4202DC5B1B00
:10041000A9181644013C4FEA43034FEA5202F3D1B4
:1004200013B1013626F00106701000F17C5000EB8C
:10043000C750F8BDF8BD014600F0E4FE214600F0CB
:10044000D9FDF8BD14F4000201D00EE00A465B00AD
:100450001C0202F10101F9D5801AC5E7014600F03E
:10046000C7FD014600F082FFF8BD4FF0FF32F3E711
:10047000002070472DE9F04120F00045B5F1A14F73
:100480000446064608DBB5F1FF4F6FDC002840F359
:10049000A0806F48BDE8F0816E4B9D4277DCB5F1DE
:1004A000445F68DB4FF0FF372146204600F0AAFE8C
:1004B0000146804600F0A6FE0546674900F0A2FE10
:1004C000664900F097FD294600F09CFE644900F063
:1004D00091FD294600F096FE624900F08BFD294609
:1004E00000F090FE604900F085FD294600F08AFE8C
:1004F0005E4900F07FFD414600F084FE5C49804685
:10050000284600F07FFE5B4900F072FD294600F0AE
:1005100079FE594900F06CFD294600F073FE5749F9
:1005200000F066FD294600F06DFE554900F060FDC3
:10053000294600F067FE7B1C014640464CD0514DD9
:1005400000F058FD214600F05DFE05EB87031969B8
:1005500000F04EFD214600F04BFD014655F8270006
:1005600000F046FD002E30DBBDE8F081014600F0D2
:1005700041FDBDE8F081444900F03CFD4FF07E5163
:1005800000F0FCFF00288DD02046BDE8F08100F08F
:1005900085F83E4B04469D4229DCA3F5D0039D42DD
:1005A00044DC014600F026FD4FF07E5100F020FDB6
:1005B0004FF080410546204600F01CFD01462846CC
:1005C00000F0D4FE002704466EE700F10040BDE8CD
:1005D000F0812F48BDE8F08100F00CFD214600F0CD
:1005E00011FE0146204600F003FDBDE8F081294BD5
:1005F0009D4214DC4FF07F5100F0FAFC4FF07F5128
:100600000546204600F0FEFD4FF07E5100F0F2FC62
:100610000146284600F0AAFE0227044644E70146A8
:100620001D4800F0A3FE032704463DE74FF07E512E
:1006300000F0DEFC4FF07E510546204600F0DAFC6B
:100640000146284600F092FE012704462CE700BF31
:10065000DB0FC93FFFFFDF3ED769853C59DA4B3DD1
:10066000356B883D6E2EBA3D2549123EABAAAA3E97
:1006700021A215BD6BF16E3D95879D3D388EE33D02
:10068000CDCC4C3E58980008CAF24971FFFF973F05
:10069000DB0FC9BFFFFF1B40000080BF20F0004000
:1006A000704700BF81F0004102E000BF83F00043CB
:1006B00030B54FEA41044FEA430594EA050F08BFFD
:1006C00090EA020F1FBF54EA000C55EA020C7FEAC1
:1006D000645C7FEA655C00F0E2804FEA5454D4EB3E
:1006E0005555B8BF6D420CDD2C4480EA020281EA08
:1006F000030382EA000083EA010180EA020281EA40
:100700000303362D88BF30BD11F0004F4FEA013191
:100710004FF4801C4CEA113102D0404261EB4101A0
:1007200013F0004F4FEA03334CEA133302D0524226
:1007300063EB430394EA050F00F0A780A4F10104E2
:10074000D5F1200E0DDB02FA0EFC22FA05F280181C
:1007500041F1000103FA0EF2801843FA05F3594102
:100760000EE0A5F120050EF1200E012A03FA0EFC81
:1007700028BF4CF0020C43FA05F3C01851EBE371AB
:1007800001F0004507D54FF0000EDCF1000C7EEBC8
:1007900000006EEB0101B1F5801F1BD3B1F5001F06
:1007A0000CD349085FEA30004FEA3C0C04F1010425
:1007B0004FEA445212F5800F80F09A80BCF1004F4E
:1007C00008BF5FEA500C50F1000041EB045141EAD0
:1007D000050130BD5FEA4C0C404141EB010111F4D1
:1007E000801FA4F10104E9D191F0000F04BF01467C
:1007F0000020B1FA81F308BF2033A3F10B03B3F15A
:1008000020020CDA0C3208DD02F1140CC2F10C02E9
:1008100001FA0CF021FA02F10CE002F11402D8BF47
:10082000C2F1200C01FA02F120FA0CFCDCBF41EA13
:100830000C019040E41AA2BF01EB0451294330BDE2
:100840006FEA04041F3C1CDA0C340EDC04F11404BF
:10085000C4F1200220FA04F001FA02F340EA030096
:1008600021FA04F345EA030130BDC4F10C04C4F1DC
:10087000200220FA02F001FA04F340EA03002946BC
:1008800030BD21FA04F0294630BD94F0000F83F406
:10089000801306BF81F480110134013D4EE77FEAE9
:1008A000645C18BF7FEA655C29D094EA050F08BF35
:1008B00090EA020F05D054EA000C04BF1946104616
:1008C00030BD91EA030F1EBF0021002030BD5FEA5A
:1008D000545C05D14000494128BF41F0004130BD82
:1008E00014F580043CBF01F5801130BD01F00045D6
:1008F00045F0FE4141F470014FF0000030BD7FEA49
:10090000645C1ABF194610467FEA655C1CBF0B4643
:10091000024650EA013406BF52EA033591EA030F5A
:1009200041F4002130BD00BF90F0000F04BF002152
:10093000704730B54FF4806404F132044FF0000585
:100940004FF0000150E700BF90F0000F04BF0021FE
:10095000704730B54FF4806404F1320410F0004564
:1009600048BF40424FF000013EE700BF42004FEA5F
:10097000E2014FEA31014FEA02701FBF12F07F43DC
:1009800093F07F4F81F06051704792F0000F14BFD9
:1009900093F07F4F704730B54FF4607401F000451D
:1009A00021F0004120E700BF50EA010208BF704774
:1009B00030B54FF000050AE050EA010208BF704769
:1009C00030B511F0004502D5404261EB41014FF4D2
:1009D000806404F132045FEA915C3FF4DCAE4FF0D6
:1009E00003025FEADC0C18BF03325FEADC0C18BFBD
:1009F000033202EBDC02C2F1200300FA03FC20FA0E
:100A000002F001FA03FE40EA0E0021FA02F114445A
:100A1000C1E600BF70B54FF0FF0C4CF4E06C1CEA6F
:100A200011541DBF1CEA135594EA0C0F95EA0C0FE4
:100A300000F0DEF82C4481EA030621EA4C5123EA57
:100A40004C5350EA013518BF52EA033541F4801186
:100A500043F4801338D0A0FB02CE4FF00005E1FB39
:100A600002E506F00042E0FB03E54FF00006E1FB83
:100A700003569CF0000F18BF4EF0010EA4F1FF04C6
:100A8000B6F5007F64F5407404D25FEA4E0E6D4106
:100A900046EB060642EAC62141EA55514FEAC52017
:100AA00040EA5E504FEACE2EB4F1FD0C88BFBCF593
:100AB000E06F1ED8BEF1004F08BF5FEA500E50F144
:100AC000000041EB045170BD06F0004646EA01010A
:100AD00040EA020081EA0301B4EB5C04C2BFD4EB3C
:100AE0000C0541EA045170BD41F480114FF0000E35
:100AF000013C00F3AB8014F1360FDEBF002001F0A3
:100B0000004170BDC4F10004203C35DA0C341BDC1C
:100B100004F11404C4F1200500FA05F320FA04F0EE
:100B200001FA05F240EA020001F0004221F0004122
:100B300010EBD37021FA04F642EB06015EEA430E95
:100B400008BF20EAD37070BDC4F10C04C4F12005C5
:100B500000FA04F320FA05F001FA04F240EA020078
:100B600001F0004110EBD37041F100015EEA430E49
:100B700008BF20EAD37070BDC4F1200500FA05F269
:100B80004EEA020E20FA04F301FA05F243EA0203E8
:100B900021FA04F001F0004121FA04F220EA0200F7
:100BA00000EBD3705EEA430E08BF20EAD37070BD3D
:100BB00094F0000F0FD101F00046400041EB01011D
:100BC00011F4801F08BF013CF7D041EA060195F0FF
:100BD000000F18BF704703F00046520043EB0303B9
:100BE00013F4801F08BF013DF7D043EA06037047A6
:100BF00094EA0C0F0CEA135518BF95EA0C0F0CD0B1
:100C000050EA410618BF52EA4306D1D181EA0301F6
:100C100001F000414FF0000070BD50EA410606BFF0
:100C20001046194652EA430619D094EA0C0F02D135
:100C300050EA013613D195EA0C0F05D152EA03367A
:100C40001CBF104619460AD181EA030101F0004198
:100C500041F0FE4141F470014FF0000070BD41F0E1
:100C6000FE4141F4780170BD70B54FF0FF0C4CF4BB
:100C7000E06C1CEA11541DBF1CEA135594EA0C0FDA
:100C800095EA0C0F00F0A7F8A4EB050481EA030E27
:100C900052EA03354FEA013100F088804FEA03330E
:100CA0004FF0805545EA131343EA12634FEA0222DC
:100CB00045EA111545EA10654FEA00260EF000419D
:100CC0009D4208BF964244F1FD0404F5407402D2EF
:100CD0005B084FEA3202B61A65EB03055B084FEA80
:100CE00032024FF480104FF4002CB6EB020E75EB7D
:100CF000030E22BFB61A754640EA0C005B084FEAA5
:100D00003202B6EB020E75EB030E22BFB61A754621
:100D100040EA5C005B084FEA3202B6EB020E75EB6C
:100D2000030E22BFB61A754640EA9C005B084FEAE4
:100D30003202B6EB020E75EB030E22BFB61A7546F1
:100D400040EADC0055EA060E18D04FEA051545EAE0
:100D500016754FEA06164FEAC30343EA52734FEA89
:100D6000C2025FEA1C1CC0D111F4801F0BD141EA02
:100D700000014FF000004FF0004CB6E711F4801F67
:100D800004BF01430020B4F1FD0C88BFBCF5E06F47
:100D90003FF6AFAEB5EB030C04BFB6EB020C5FEA57
:100DA000500C50F1000041EB045170BD0EF0004EAC
:100DB0004EEA113114EB5C04C2BFD4EB0C0541EADE
:100DC000045170BD41F480114FF0000E013C90E6DB
:100DD00045EA060E8DE60CEA135594EA0C0F08BF9F
:100DE00095EA0C0F3FF43BAF94EA0C0F0AD150EA9E
:100DF00001347FF434AF95EA0C0F7FF425AF104631
:100E000019462CE795EA0C0F06D152EA03353FF458
:100E1000FDAE1046194622E750EA410618BF52EAD5
:100E200043067FF4C5AE50EA41047FF40DAF52EAA9
:100E300043057FF4EBAE12E74FF0FF3C06E000BF46
:100E40004FF0010C02E000BF4FF0010C4DF804CD53
:100E50004FEA410C7FEA6C5C4FEA430C18BF7FEA13
:100E60006C5C1BD001B050EA410C0CBF52EA430C41
:100E700091EA030F02BF90EA020F0020704710F1C1
:100E8000000F91EA030F58BF994208BF90422CBF50
:100E9000D8176FEAE37040F0010070474FEA410C49
:100EA0007FEA6C5C02D150EA013C07D14FEA430C67
:100EB0007FEA6C5CD6D152EA033CD3D05DF8040BD8
:100EC000704700BF8446104662468C46194663460A
:100ED00000E000BF01B5FFF7B7FF002848BF10F1E1
:100EE000000F01BD4DF808EDFFF7F4FF0CBF012026
:100EF00000205DF808FB00BF4DF808EDFFF7EAFFA2
:100F000034BF012000205DF808FB00BF4DF808ED5C
:100F1000FFF7E0FF94BF012000205DF808FB00BF51
:100F20004DF808EDFFF7CEFF94BF012000205DF8DB
:100F300008FB00BF4DF808EDFFF7C4FF34BF0120E8
:100F400000205DF808FB00BF4FEA4102B2F1E04328
:100F500024BFB3F5001CDCF1FE5C0DD901F0004CA0
:100F60004FEAC0024CEA5070B2F1004F40EB8300F0
:100F700008BF20F00100704711F0804F21D113F11C
:100F80003872BCBF01F00040704741F480114FEA55
:100F90005252C2F11802C2F1200C10FA0CF320FADE
:100FA00002F018BF40F001004FEAC1234FEAD323FB
:100FB00003FA0CFC40EA0C0023FA02F34FEA430365
:100FC000CCE77FEA625307D150EA01331EBF4FF0EE
:100FD000FE4040F44000704701F0004040F0FE4009
:100FE00040F40000704700BF80F0004002E000BF06
:100FF00081F0004142001FBF5FEA410392EA030F04
:101000007FEA226C7FEA236C6AD04FEA1262D2EB4D
:101010001363C1BFD218414048404140B8BF5B4252
:10102000192B88BF704710F0004F40F4000020F0EB
:101030007F4018BF404211F0004F41F4000121F001
:101040007F4118BF494292EA030F3FD0A2F101024B
:1010500041FA03FC10EB0C00C3F1200301FA03F189
:1010600000F0004302D5494260EB4000B0F5000FAC
:1010700013D3B0F1807F06D340084FEA310102F16B
:101080000102FE2A51D2B1F1004F40EBC25008BF1D
:1010900020F0010040EA03007047490040EB0000E7
:1010A00010F4000FA2F10102EDD1B0FA80FCACF116
:1010B000080CB2EB0C0200FA0CF0AABF00EBC25015
:1010C00052421843BCBFD0401843704792F0000F03
:1010D00081F4000106BF80F400000132013BB5E756
:1010E0004FEA41037FEA226C18BF7FEA236C21D0CC
:1010F00092EA030F04D092F0000F08BF0846704731
:1011000090EA010F1CBF0020704712F07F4F04D1FE
:10111000400028BF40F00040704712F100723CBF11
:1011200000F50000704700F0004343F0FE4040F43B
:10113000000070477FEA226216BF08467FEA2363F9
:101140000146420206BF5FEA412390EA010F40F4E4
:10115000800070474FF0000304E000BF10F0004330
:1011600048BF40425FEA000C08BF704743F0964317
:1011700001464FF000001CE050EA010208BF704732
:101180004FF000030AE000BF50EA010208BF7047B9
:1011900011F0004302D5404261EB41015FEA010CCE
:1011A00002BF84460146002043F0B64308BFA3F1C6
:1011B0008053A3F50003BCFA8CF2083AA3EBC253A8
:1011C00010DB01FA02FC634400FA02FCC2F12002C7
:1011D000BCF1004F20FA02F243EB020008BF20F0FE
:1011E0000100704702F1200201FA02FCC2F1200264
:1011F00050EA4C0021FA02F243EB020008BF20EA59
:10120000DC7070474FF0FF0C1CEAD0521EBF1CEA86
:10121000D15392EA0C0F93EA0C0F6FD01A4480EA74
:10122000010C400218BF5FEA41211ED04FF000635D
:1012300043EA501043EA5111A0FB01310CF0004089
:10124000B1F5000F3EBF490041EAD3715B0040EAAF
:10125000010062F17F02FD2A1DD8B3F1004F40EB7F
:10126000C25008BF20F00100704790F0000F0CF052
:10127000004C08BF49024CEA502040EA51207F3A16
:10128000C2BFD2F1FF0340EAC250704740F40000F1
:101290004FF00003013A5DDC12F1190FDCBF00F0E2
:1012A00000407047C2F10002410021FA02F1C2F190
:1012B000200200FA02FC5FEA310040F1000053EA2C
:1012C0004C0308BF20EADC70704792F0000F00F07A
:1012D000004C02BF400010F4000F013AF9D040EA80
:1012E0000C0093F0000F01F0004C02BF490011F414
:1012F000000F013BF9D041EA0C018FE70CEAD15312
:1013000092EA0C0F18BF93EA0C0F0AD030F0004C91
:1013100018BF31F0004CD8D180EA010000F0004045
:10132000704790F0000F17BF90F0004F084691F003
:10133000000F91F0004F14D092EA0C0F01D142023D
:101340000FD193EA0C0F03D14B0218BF084608D106
:1013500080EA010000F0004040F0FE4040F4000050
:10136000704740F0FE4040F4400070474FF0FF0CE3
:101370001CEAD0521EBF1CEAD15392EA0C0F93EA2A
:101380000C0F69D0A2EB030280EA010C49024FEA7C
:10139000402037D04FF0805343EA111143EA101335
:1013A0000CF000408B4238BF5B0042F17D024FF4ED
:1013B000000C8B4224BF5B1A40EA0C00B3EB510FC8
:1013C00024BFA3EB510340EA5C00B3EB910F24BFB1
:1013D000A3EB910340EA9C00B3EBD10F24BFA3EB36
:1013E000D10340EADC001B0118BF5FEA1C1CE0D1FE
:1013F000FD2A3FF650AF8B4240EBC25008BF20F0B1
:10140000010070470CF0004C4CEA50207F32C2BF04
:10141000D2F1FF0340EAC250704740F400004FF0A1
:101420000003013A37E792F0000F00F0004C02BFD2
:10143000400010F4000F013AF9D040EA0C0093F09C
:10144000000F01F0004C02BF490011F4000F013BF6
:10145000F9D041EA0C0195E70CEAD15392EA0C0F5E
:1014600008D142027FF47DAF93EA0C0F7FF470AF96
:10147000084676E793EA0C0F04D14B023FF44CAFD9
:1014800008466EE730F0004C18BF31F0004CCAD16E
:1014900030F000427FF45CAF31F000437FF43CAFAA
:1014A0005FE700BF4FF0FF3C06E000BF4FF0010CCC
:1014B00002E000BF4FF0010C4DF804CD4FEA4002AE
:1014C0004FEA41037FEA226C18BF7FEA236C11D0F8
:1014D00001B052EA530C18BF90EA010F58BFB2EBAB
:1014E000030088BFC81738BF6FEAE17018BF40F02B
:1014F000010070477FEA226C02D15FEA402C05D1DF
:101500007FEA236CE4D15FEA412CE1D05DF8040B63
:10151000704700BF844608466146FFE70FB5FFF7F6
:10152000C9FF002848BF10F1000F0FBD4DF808EDAE
:10153000FFF7F4FF0CBF012000205DF808FB00BF9F
:101540004DF808EDFFF7EAFF34BF012000205DF8F9
:1015500008FB00BF4DF808EDFFF7E0FF94BF012046
:1015600000205DF808FB00BF4DF808EDFFF7D2FF43
:1015700094BF012000205DF808FB00BF4DF808ED86
:10158000FFF7C8FF34BF012000205DF808FB00BF53
:101590004FEA40024FEA41037FEA226C02D15FEA40
:1015A000402C08D17FEA236C02D15FEA412C02D1A2
:1015B0004FF0000070474FF0010070474FEA4002C3
:1015C000B2F1FE4F0FD34FF09E03B3EB12620DD971
:1015D0004FEA002343F0004310F0004F23FA02F0DB
:1015E00018BF404270474FF00000704712F1610F82
:1015F00001D1420205D110F0004008BF6FF0004059
:1016000070474FF00000704742000ED2B2F1FE4F1B
:101610000BD34FF09E03B3EB126209D44FEA0023C1
:1016200043F0004323FA02F070474FF00000704788
:1016300012F1610F01D1420202D14FF0FF30704729
:101640004FF00000704700BF03685A004CBF43F0E2
:10165000004323F000431844704700BF61B32DE9F5
:10166000F84F01F1FF3A90460646D146002707EBB6
:10167000090404EBD4746410E50071190846FFF7FF
:10168000E3FFA245834605F10800304409D0FFF787
:10169000DBFFC34500F1FF3005D8404509D2671C88
:1016A000E5E7C34505D9A74202D004F1FF39DEE7DB
:1016B00000210846BDE8F88F08467047012807D08A
:1016C000022807D0044B00280CBF184600207047A2
:1016D0000248704702487047CD1D0008D11D000820
:1016E000D51D000830B5254B83B004468D1E73B35D
:1016F00001A92846AFF3008018B301992A46FFF7E5
:10170000ADFF0146E8B1FFF79FFF4B68A064012BD6
:1017100011D0002B22DB081DFFF796FF0023E064A9
:1017200023650368002B1EDBFFF78EFF002320617B
:10173000184603B030BD052300221846226103B0CD
:1017400030BD092300221846226103B030BD0C4B86
:101750000C491846C91AC9100191CFE70123081D89
:10176000E0642365DDE7C3F30360FFF7A7FF00280C
:10177000206114BF00230923DAE700BF0000000046
:1017800068A8000800AA0008036810B5DA07044634
:1017900006D49B0700F1480009D500F057FC2368E8
:1017A000590709D51A070ED5DB0613D510BD00F071
:1017B00045FC23685907F5D404F1D00000F04EFC35
:1017C00023681A07F0D404F5A87000F04FFC2368D2
:1017D000DB06EBD404F5E870BDE8104000F08ABCED
:1017E000036803B103441846704700BF09207047DF
:1017F000704700BF70B504460D4608E02A6C2369A7
:10180000626121462A4601209847082808D1296CA0
:101810002046FFF767FF06460028EFD000F09AFE4B
:101820000728FBD13046296CFFF7E2FF281D00F0A6
:10183000F9FB00BF2DE9F04705460027ADF5727DA5
:1018400003AC0E1D92460FCE0FC40FCE0FC40FCEA9
:101850000FC496E80F00D5F80C80D5F8189084E8EE
:101860000F0002AC2846216C2760FFF73BFFBAF15E
:10187000000F074614BF0A2609267FB1A36B46F066
:1018800010018DE810022A46636401202B46C047F0
:1018900078BB38460DF5727DBDE8F087236C4FF4B8
:1018A000F0726B6121467AA800F0CAFE2B697AAA11
:1018B000294630469847889B82468DE8100231467B
:1018C00063642A462B460120C04790B94FF4F0725A
:1018D0007AA9204600F0B4FEBAF1080F06D1216CB7
:1018E0002846FFF7FFFE09260746C6E7BAF1070FAD
:1018F00005D0092738460DF5727DBDE8F0873846DA
:10190000216CFFF775FF03A800F08CFB406C70475B
:10191000F0B54FF0FF3ECB6BF9B00B640E1D01AD7F
:101920000F4604460FCE0FC50FCE0FC50FCE0FC505
:1019300096E80F0085E80F00CDF800E006E0236987
:101940006A46214698470828054608D1109920463E
:10195000FFF7C8FE0028F2D0092079B0F0BD684634
:10196000FFF712FF062DF7D139462046FFF742FF59
:1019700030B4DD6BC160826119461D64002230BC49
:1019800058E700BF70B54369C6680B6426B10122F1
:10199000FFF750FF00F0DEFD03690A4604460D46DE
:1019A000014602209847072807D0082803D1294676
:1019B0002046FFF71FFF00F0CDFD3046296CFFF7F2
:1019C00017FF281D00F02EFBC2682AB110B4CC6BA3
:1019D00000220C6410BC2DE79AE700BF704700BFDF
:1019E000836813B1014601201847704700B50429E8
:1019F00007D8DFE801F00309060909000BB90F2A2F
:101A000005D902205DF804FB01205DF804FB00EB22
:101A1000820252681846019B1A605DF804FB00BF01
:101A2000002310B584B003AC0A4600941946FFF7B2
:101A3000DDFF039804B010BD00B5042907D8DFE826
:101A400001F00309060909000BB90F2A05D9022084
:101A50005DF804FB01205DF804FB019900EB8202B4
:101A60000968184651605DF804FB00BF002310B5FB
:101A700084B004AC44F8042D00940A461946FFF7DC
:101A8000DBFF04B010BD00BFF0B54FF0FF3ED36BDD
:101A9000ADF50F7D1364151D17AC07460E460FCD2F
:101AA0000FC40FCD0FC40FCD0FC495E80F0084E80D
:101AB0000F00CDF858E012E00C2116A86A46FFF797
:101AC000D5FF314616A8B84778B9049B16AA6946CF
:101AD000082098470528044608D0092805D02699EB
:101AE0006846FFF7FFFD0028E6D0092416A8FFF797
:101AF0004BFE20460DF50F7DF0BD00BF2DE9F04FE8
:101B0000CC6C914622688BB004340D460792089441
:101B100000F0030B1E46002B60D103231202079234
:101B20008DF825608DF824302B6DBBF1020F08BFB6
:101B3000AC6B13F0010340D1019300F00803039351
:101B4000D4F80080B8F1000F39D0022E43D0B4F899
:101B5000008067880434AB6C27F0010A0F214846E7
:101B60009A44FFF75DFF824533D828F001039A4479
:101B700050452CBF002001207F0007F0020708F02D
:101B8000010847EA0807012F3ED035D3022F1CD1A8
:101B9000236823F000420292BBF1000F76D128B1F6
:101BA000039900297ED0002A00F0A680002B77DB65
:101BB000029B013304EB8304C2E700230193022E4E
:101BC0003EDDFFF713FE002840D009200BB0BDE832
:101BD000F08F0020D0E767680834BCE7022BA3DC55
:101BE0000221130C8DF825301204DBB204EB8304C0
:101BF00007928DF8241097E7BBF1000F02D0002860
:101C000040F0BD8004349BE7BBF1000F25D1A8B1A3
:101C100094E80C00991C4FEAD272D6D005F1580115
:101C20000133069100F0A380201DFFF7D9FD06AB1C
:101C300001462846AFF30080002877D108347FE7BB
:101C400007A9484600F0F0FA0028BED1019B002BFE
:101C50005CD108200BB0BDE8F08F0D2148462F6AFB
:101C6000FFF7DEFE8742E9D1AB6A9C42E6D120460F
:101C7000FFF7EAFC0F2102464846FFF7F7FE484609
:101C80002A460021FFF7F2FE07209FE70D21484674
:101C90002F6AFFF7C5FE874258D02368002B87DAEA
:101CA000043485E7029B3BB305F15803271DCDF8AB
:101CB00010B0DDF80C80A346DDF808A01C460596A0
:101CC00002E0B245B04616D038460694FFF788FDCC
:101CD00006AB014600222846AFF3008008F101065A
:101CE00004370028EDD0029B5C464345DDF810B078
:101CF000059ED2D100E05C4648460D21FFF790FEDC
:101D0000069B2862AC626B6206205FE70F214846A3
:101D1000FFF786FE0E2102464846FFF7A7FE48461B
:101D2000294A0F21FFF7A2FE07204FE707460D21A2
:101D30004846FFF775FE022F28621DD12B46069AF2
:101D400043F82C2F6B62AC6206203FE7AB6A9C42E3
:101D5000A3D1042200270299A318A962EF622A6383
:101D60006B632368BB421DDB0123019320E74846D8
:101D70000D21FFF755FE2862069B6B62E3E72046C4
:101D8000FFF762FC04340646AC632846AFF30080DC
:101D900000283FF41AAF484632460F21FFF766FE8F
:101DA000072013E70846013004EB8000FFF74CFCE6
:101DB0000F2102464846FFF759FE48462A46394653
:101DC000FFF754FE072001E700000000002395E61E
:101DD000012393E6022391E6F0B50446C5B0042939
:101DE0000DD8DFE801F055030C310F00012B4FEA4D
:101DF000124695B264D17219102A40F29D800220D9
:101E000045B0F0BD002BFAD1102AF8D82368D806C7
:101E100000F1C88022AE30460192012500F074F92D
:101E20000023A06B019A05FA03F1114203D0016867
:101E3000043046F823100133042BF4D1A06330465C
:101E400000F058F90020DBE7032BD8D1150C97B22E
:101E5000EB19102BD3D823681E0700F1B78022AEF0
:101E6000304600F025F9ED00A06B5FB1043D03465C
:101E7000711900EBC70053F8042B834241F8042F7B
:101E8000F9D11846A063304600F0F0F80020B7E71B
:101E9000002BB4D10127A56B96B2201D07FA03F1E0
:101EA000314203F1010302D0296804350160102B8F
:101EB00000F10400F2D112F400503BD1A5639FE77A
:101EC000052B9CD17719202F99D80F2E66D92F4634
:101ED000002D3AD12A460027002AA06B72DD00EBC4
:101EE000C202014644A800EBC6008C3851F8045BDE
:101EF000914240F8045FF9D1084697B1102E32465E
:101F000038BF102244A901EBC202A2F5C4727900C5
:101F1000043A00EB810150F8045B884242F8045F08
:101F2000F9D1012B48D00F2EA16333D917B102A8E4
:101F300000F094F8002063E70F2E3FF660AF002713
:101F40002268D10717D4002F60D02268510745D4EA
:101F5000012B4DD00F2E06D822A8019300F07AF85D
:101F6000019B002FB6D002A8019300F07BF8019BE3
:101F7000C6F11002B0E722F00101052B21600193A8
:101F800020463BD022F0030240F8482B00F05AF8DC
:101F9000019BD8E722A800F059F8C7E7102FCED947
:101FA000103FCDE723F01003236004F5E8700192A1
:101FB00000F0AAF8019A2DE70431A16322A800F0ED
:101FC0003DF8B7E7002F99D10146AAE723F00803AF
:101FD000236004F5A87000F06BF840E7204622F07B
:101FE000040240F8D02B019300F03CF8019BAFE7CE
:101FF00022A8019300F026F8019BB9E741F0020105
:1020000040F8481B00F026F8019B9CE7012B03D009
:102010000F2E3FF65FAF9FE722A8019300F012F862
:10202000019B57E700F1340191E838009C46A64631
:102030004CF8045D90E8FF0FE54600BD90EC210BE5
:10204000704700BF80EC210B704700BF90EC200B65
:10205000704700BF80EC200B704700BFD0EC200B16
:10206000704700BFC0EC200B704700BFF0EC0201CE
:10207000F0EC0211F0EC0221F0EC0231F0EC024144
:10208000F0EC0251F0EC0261F0EC0271F0EC028134
:10209000F0EC0291F0EC02A1F0EC02B1F0EC02C124
:1020A000F0EC02D1F0EC02E1F0EC02F1704700BF7D
:1020B000E0EC0201E0EC0211E0EC0221E0EC023184
:1020C000E0EC0241E0EC0251E0EC0261E0EC027174
:1020D000E0EC0281E0EC0291E0EC02A1E0EC02B164
:1020E000E0EC02C1E0EC02D1E0EC02E1E0EC02F154
:1020F000704700BFB0FC0181B0FC0191B0FC01A1B0
:10210000B0FC01B1704700BFA0FC0181A0FC0191AF
:10211000A0FC01A1A0FC01B1704700BFEC4600B5D6
:102120002DE900502DE9FF1F4FF000032DE90C00B1
:1021300001A9FFF7EDFBDDF840E012B0704700BFEA
:10214000EC4600B52DE900502DE9FF1F4FF00003CC
:102150002DE90C0001A9FFF715FCDDF840E012B0F5
:10216000704700BFEC4600B52DE900502DE9FF1F78
:102170004FF000032DE90C0001A9FFF725FCDDF865
:1021800040E012B0704700BFEC4600B52DE90050AA
:102190002DE9FF1F4FF000032DE90C0001ABFFF705
:1021A000E7FBDDF840E012B0704700BFEC4600B539
:1021B0002DE900502DE9FF1F4FF000032DE90C0021
:1021C00001AAFFF761FCDDF840E012B0704700BFE4
:1021D000027A1AB9437A43B9B02070470368013ACA
:1021E00002721A020260180E704703214268013B16
:1021F00010B443721368141D01721A024460026025
:1022000010BC180E704700BF002300B585B003AAAC
:10221000009219460C22FFF7E9FB039805B05DF820
:1022200004FB00BFF0E700BF2DE9F04306460F4670
:102230004FF0000885B03846FFF7CAFFB0280446C3
:1022400023D0050627D400230DF10C09194685007B
:102250000D22CDF800903046FFF7C8FBEDB2039B8E
:10226000600605F104054CBF5D1BED1800230D222F
:102270001946CDF8009030460395FFF7DDFB384650
:10228000FFF7A6FFB0280446DBD1B8F1000F00F03D
:10229000948000201CE000F0F003802B5CD0902B99
:1022A00019D0A02B2CD0B02B3ED0C02B6BD000F07F
:1022B000F803D02B0BD100F00702013242F40022C8
:1022C000052301213046FFF787FD0028B3D0092000
:1022D00005B0BDE8F08300F00D030D2BF7D000230F
:1022E00003AD00F00F02194600953046FFF77EFB64
:1022F0000023009519460D223046FFF79DFB9AE713
:10230000C3434FF47F6203F007031A410023010720
:1023100002F47F6248BF42F4804219463046FFF71C
:102320005BFD0028D3D186E7B12857D0B22868D00A
:10233000B32800F0958000F0FC03B42BC7D0012334
:1023400000F007021A4442F4002219463046FFF713
:1023500043FD0028BBD16EE73846FFF739FF240262
:102360000443B4F5004FB2D000232401A2B21946B1
:102370003046FFF731FD0028A9D114F4004F18BFF3
:102380004FF0010857E7C6287DD0C72800F08680A7
:1023900000F0F803C02B00F09480C82800F09F8064
:1023A000C92894D13846FFF713FF020300F00F004D
:1023B00002F470220130024382E703AC43460E224E
:1023C000414600943046FFF711FB009430464346E7
:1023D0000F224146FFF730FB404679E73846FFF7CA
:1023E000F7FE00283FF473AF10F0F0037FF46FAFF7
:1023F000024619463046FFF7EFFC00287FF467AF2E
:1024000019E700230DF10C090D221946CDF80090B3
:102410003046FFF7EBFA3846FFF7DAFE02064FF0D8
:1024200002040CD5039B00F07F00A0400344384613
:102430000393FFF7CDFE030604F10704F2D4002353
:10244000039900F07F02A24001F501718C18CDF8CC
:10245000009019460D2230460394FFF7EDFAEAE6A4
:102460003846FFF7B5FE0123010300F00F0001F429
:102470007021C2180A4330461946FFF7ADFC002808
:102480007FF425AFD7E63846FFF7A2FE010300F040
:102490000F00032301F47021421CEBE73846FFF7DD
:1024A00097FE00283FF413AF10F0F0037FF40FAF56
:1024B000024604213046FFF78FFC00287FF407AF67
:1024C000B9E6032300F00F02013242F4202219463C
:1024D0003046FFF781FC00287FF4F9AEABE63846C2
:1024E000FFF776FE00F0F00200F00F031032013328
:1024F00043EA0232E4E600BF30B503240D46C36C64
:1025000085B05A688DF80C40DC791202083301A9B5
:10251000284601928DF80D400293FFF785FE05B025
:1025200030BD00BF08B5FFF77DFE806C08BD00BF61
:1025300008B5FFF777FEC06CC37900EB8300083065
:1025400008BD00BF08B500F005F800BF08B5FFF7EB
:10255000F9FF00BF08B5062001F0C2F8012007F01E
:1025600067F800BF014B1868704700BF04000020E7
:1025700070B50F4E0F4D761BB61018BF002405D056
:10258000013455F8043B9847A642F9D10A4E0B4D49
:1025900007F04EF9761BB61018BF002406D00134A0
:1025A00055F8043B9847A642F9D170BD70BD00BFF5
:1025B00000AA000800AA000808AA000800AA00084B
:1025C000024B0146186800F047B900BF0400002024
:1025D000024B0146186800F0F7B800BF0400002065
:1025E000032A70B422D940EA01039B0711D0037873
:1025F0000C78A3421DD10A44013105E010F8013FD7
:1026000011F8014BA34214D19142F7D1002070BCC4
:1026100070470D6806680C46AE42034601F104019E
:1026200000F1040008D1043A032AF2D8002ADED1CE
:10263000ECE7181B70BC704721461846D7E700BF6F
:10264000844641EA000313F0030349D1403A23D3FF
:102650000B6803604B6843608B688360CB68C36022
:102660000B6903614B6943618B698361CB69C3610A
:102670000B6A03624B6A43628B6A8362CB6AC362F2
:102680000B6B03634B6B43638B6B8363CB6BC363DA
:1026900040304031403ADBD230320BD30B6803601C
:1026A0004B6843608B688360CB68C3601030103127
:1026B000103AF3D20C3205D351F8043B40F8043BF6
:1026C000043AF9D2043208D0D2071CBF11F8013BFA
:1026D00000F8013B01D30B8803806046704700BFC0
:1026E000082A13D38B07B1D010F00303AED0C3F187
:1026F0000403D21ADB071CBF11F8013B00F8013BB1
:10270000A4D331F8023B20F8023B9FE7043AD9D327
:10271000013A11F8013B00F8013BF9D20B78037044
:102720004B7843708B7883706046704770B486072F
:1027300046D0541E002A41D0CAB2034602E014F12A
:10274000FF343BD303F8012B9D07F8D1032C2ED97E
:10275000CDB245EA05250F2C45EA054519D926468F
:1027600003F11002103E0F2E42F8105C42F80C5C90
:1027700042F8085C42F8045C02F11002F2D8A4F1BD
:10278000100222F00F0204F00F041032032C134445
:102790000DD91E462246043A032A46F8045BFAD8AD
:1027A000221F22F003020432134404F003042CB16C
:1027B000C9B21C4403F8011B9C42FBD170BC70479A
:1027C00014460346C2E700BF91B151F8043C0439F6
:1027D000002BB8BFC9181F4B1A68FAB18A4230B42F
:1027E0000AD908680C18A24226D04A60196030BC89
:1027F00070478B4203D81A465368002BF9D11468EE
:1028000015198D420DD006D808680C189C4219D0B5
:102810004B605160EBE70C230360E8E74A60196006
:10282000704709680C44111999421460DFD10ACB32
:102830000C4414605360DAE714685268204481E85D
:102840000500D3E71C685B68204481E809005160FB
:10285000CDE700BF1001002070B5CC1C24F00304AC
:1028600008340C2C38BF0C24002C06463BDBA1425C
:1028700039D8274D296851B10B681B1B04D436E0A9
:1028800013681B1B1AD511464A68002AF8D16968DB
:10289000002937D02146304600F07AFE431C22D072
:1028A000C51C25F00305A84205D0291A304600F0C2
:1028B0006FFE013017D02A462C6004E00B2B0DD997
:1028C00013601A44146002F10B0020F00700131D7E
:1028D000C31A02D05942D15070BD70BD8A420ED089
:1028E00053684B60EFE70C230020336070BD0B2B67
:1028F00003D80A464B682B60E5E70A46E0E70B463B
:102900000A46F8E7304600F043FE6860C2E700BFC1
:10291000100100202DE9F047002B88B09846914621
:10292000109D139F149C5FDB0023129A1370662C7A
:1029300044D0462C42D024F02003452B4A4643463F
:102940004FF0020128D007AE8DE8220006A90496B8
:102950000297039101F09CF8672C064627D1119B42
:10296000DB0729D535444846414600220023FEF7BF
:10297000B9FA002836D1079B9D4206D930215A1C4E
:1029800007921970079B9D42F9D83046159A9B1BF8
:10299000136008B0BDE8F08707AE0091013506A9C5
:1029A000049601950297039101F072F80646472CB0
:1029B000D8D1119BDB07D5D4079BE6E7032107AEEF
:1029C0008DE8A20006A9434604964A46039101F009
:1029D0005FF803780646302B00EB050A0BD03D6804
:1029E0005544C0E72B46D0E72D2103F1004398461C
:1029F000129B19709BE74846414600220023FEF7D0
:102A000071FA0028EBD1C5F101053D605544AAE7F4
:102A1000F0B4002982B002703CDB2B23841C43708D
:102A200009292DDD0DF107052E461E4F00E0164643
:102A300087FB0123CA17C2EBA30202EB8203A1EBBF
:102A4000430311463033092906F8013C06F1FF32F1
:102A5000EDDC3031B31EC9B29D4202F8011C1ED913
:102A60001346264601E013F8011B9D4206F8011BA0
:102A7000F9D16B1C9A1A2244101A02B0F0BC7047AC
:102A800030232246194402F8023B6170101A02B04A
:102A9000F0BC70472D2349424370841CC0E7224696
:102AA000F4E700BF676666662DE9F04F93B00C4609
:102AB00016461F46DDF870B0054602F0B5F903680A
:102AC00018460A9300F044FE0023DBF80010226849
:102AD000073109920B90109321F00701D1F8008083
:102AE00012F4807F94F818A0424600F0D88048681D
:102AF000083103468146CBF80010C4E9122329F0BF
:102B0000004B404659464FF0FF32BB4B03F0AAFC46
:102B100000286FD1404659464FF0FF32B64BFEF7C2
:102B2000F5F9002866D14046494600220023FEF709
:102B3000E3F9002840F027810321099BAF4A23F0E5
:102B400004032360AE4BBAF1470F98BF1A464FF00B
:102B50000008216109920097334611AA21462846B0
:102B600000F06CFA013040D02368590540F1038130
:102B7000BAF1650F40F29C80D4E9120100220023D3
:102B8000FEF7B0F9002840F0D3810F9B002B40F3F3
:102B90001982109BD4F858904B45A8BF4B46002B88
:102BA0009A4607DD099A31462846B84701301CD0BD
:102BB000D4F858902AEAEA7AA9EB0A03002B40F3EA
:102BC00071814FF0000804F11A0B05E0A36DA3EB2F
:102BD0000A02424540F3658101235A4631462846A0
:102BE000B847013008F10108F0D14FF0FF3013B0C1
:102BF000BDE8F08F424640464B46494603F032FC62
:102C0000002840F0F1806168481C00F01981BAF199
:102C1000670F00F0BD81BAF1470F00F0B8800020C7
:102C2000099BCDF8308043F4806EC4F800E0CDF805
:102C300034900DF1400CCDF804E000910DF13C0E04
:102C40000DF13B010690DDE90C23CDF810A0CDF885
:102C500014C0CDF80CE002912846FFF75BFE099006
:102C6000BAF1650F0F9B40F2D980BAF1660F00F000
:102C70009681109A9A4200F30C8122682361D00752
:102C800001D55A1C22614FF00008A3659DF83B3026
:102C9000002B3FF460AF2D2384F843305BE7D1F87D
:102CA000049008314B46CBF80010C4E9122326E704
:102CB000109A012A62DD0123099A31462846B84755
:102CC000013092D00B9B0A9A31462846B847013012
:102CD0008BD0D4E9120100230022FEF703F9109BE8
:102CE000A0B1012B1BDD4FF0000904F11A0A03E02B
:102CF000109B013B4B4512DD0123524631462846CD
:102D0000B847013009F10109F2D16EE7099A013B98
:102D1000013231462846B84701303FF466AF43469A
:102D200004F1500231462846B84701303FF45DAF08
:102D3000236813F0020FE068119B16D0C21A002A14
:102D400013DD4FF0000804F1190904E0E068119B5D
:102D5000C21A424509DD01234A4631462846B84792
:102D6000013008F10108F1D13FE79842B8BF184699
:102D700013B0BDE8F08F099A2369D3E7DB079AD433
:102D8000099A0123C5E72D2384F84330D4E60029AE
:102D900000F001810020099BCDF8308043F4806E63
:102DA000C4F800E0CDF834900DF1400CCDF804E00B
:102DB00000910DF13C0E0DF13B010690DDE90C2375
:102DC000CDF810A0CDF814C0CDF80CE00291284643
:102DD000FFF7A0FD09900F9BD91C17DB6268934297
:102DE00014DC4FF0670A44E7099B032123F0040336
:102DF0002360044A044BA6E6FFFFEF7FECA7000820
:102E0000E8A70008F4A70008F0A70008AAF1020A42
:102E10005FFA8AFABAF1650F3FF627AF013B194610
:102E2000524604F150000F93FFF7F2FD109A8046CE
:102E30008318012A236140F3C0800133236125E711
:102E400006218B466160002009990DF1400C41F488
:102E5000806EC4F800E00DF13B01CDF804E00DF107
:102E60003C0E069042464B46CDF810A0CDF800B07F
:102E7000CDF814C0CDF80CE002912846FFF74AFDCA
:102E8000BAF1670F0990A6D0BAF1470F7FF4E8AE08
:102E9000A1E7002BCCBF0121C3F102010A4422614A
:102EA000F1E699460F9B109A934236DB2168C907D9
:102EB00033D4A2EB0908D31A9845A8BF9846B8F1B5
:102EC000000F0CDD099B31464B441A462846434609
:102ED000B84701303FF489AE109B0F9A9B1A28EA3D
:102EE000E879A3EB0903002B7FF722AF4FF000082E
:102EF00004F11A0A07E0109B0F9A9B1AA3EB09032F
:102F000043457FF715AF0123524631462846B8475F
:102F1000013008F10108EED167E60B9B0A9A3146B1
:102F20002846B84701303FF460AE109A0F9BC0E7C7
:102F30000123414A31462846B84701303FF455AE97
:102F40000F9A109B9A4203DB2368DA077FF5F1AEF4
:102F50000B9B0A9A31462846B84701303FF445AEEC
:102F6000109B012B7FF7E4AE4FF0000804F11A0923
:102F700004E0109B013B43457FF7DAAE01234A464C
:102F800031462846B847013008F10108F1D12CE656
:102F900000297FF4FFAE01239B46636053E7002BBB
:102FA00062683DDD23611AB101321A4422616AE68A
:102FB0002168C8077FF567AEF6E72268D2077FF57C
:102FC00065AE3AE701231C4A31462846B84701302E
:102FD0003FF40BAE0F9B2BB9109B1BB92368D8078E
:102FE0007FF5A7AE0B9B0A9A31462846B8470130B9
:102FF0003FF4FBAD0F9B002B1ADA4FF0000804F1F1
:103000001A0903E00F9B5B42434511DD01234A4649
:1030100031462846B847013008F10108F2D1E4E50D
:1030200022B92168C90701D4012238E7023236E704
:10303000099A109B76E600BFF8A700082DE9F04733
:103040000C460969A56891468D42B8BF0D461560CA
:1030500094F8431006461F46DDF8208011B16A1C23
:10306000C9F80020236899065DD5D9F800200232FE
:10307000C9F80020236813F0060F19461DD1E16836
:103080008A1A002AD8BF194617DD002504F1190A4B
:1030900005E0E368D9F800209B1AAB420CDD012360
:1030A000524639463046C047013005F10105F0D19E
:1030B0004FF0FF30BDE8F087216894F843300033CB
:1030C00018BF01238A060AD53021E21882F843107E
:1030D00094F845105A1C224482F84310023304F13C
:1030E000430239463046C0470130E1D0236803F03F
:1030F0000603042B29D0A36822699342C8BF4FF06E
:10310000000930DD9B1A994400251A3401E04D4531
:1031100029D00123224639463046C047013005F107
:103120000105F4D1C4E713F0060F08D1E168D9F81E
:1031300000208A1A002AD8BF1946A6DCBDE794F8F9
:103140004330003318BF0123C9E7D9F80010E06805
:10315000A3682269A0EB0109934229EAE979D1DC4D
:10316000B9F1000FD0D10020BDE8F0872DE9F04380
:103170000C46097E85B06E2906461746984604F12E
:10318000430C0C9855D00FD8632900F0198100F238
:10319000D48000295CD0582940F0E68084F845109E
:1031A0002268DFF85CE213E0732900F0FB8000F294
:1031B00089806F2900F0E280702940F0D580226874
:1031C00042F0200222607823DFF838E284F84530AC
:1031D0000368150603F1040100F1FD8055064BBF9D
:1031E0001B881B6801600160D00744BF42F02002C9
:1031F0002260002B40F093801021226822F02002F0
:103200002260002284F8432060680028A060C0F299
:103210008B80226822F004022260002B66D10028F5
:1032200040F08480654608296ED0ACEB050323612D
:1032300011E023681A0600F1D18013F0400F0368F3
:10324000626903F1040101601B6814BF1A801A60EF
:10325000002365462361CDF800803B4603AA214642
:103260003046FFF7EBFE013021D02A46236939466C
:103270003046C04701301AD02368E06813F0020FCF
:10328000039B19D0C21A002A16DD002504F1190982
:1032900004E0E068039BC21AAA420DDD01234A46FE
:1032A00039463046C047013005F10105F1D14FF0F4
:1032B000FF3005B0BDE8F0839842B8BF184605B0AE
:1032C000BDE8F083752959D078294DD122687AE775
:1032D0002D2061685B42002984F84300A16020DB57
:1032E0000A2122F00402DFF818E122606546B3FBF0
:1032F000F1F201FB12331EF80300134605F8010D2D
:10330000002AF4D1082990D12368D9078DD56268A5
:1033100023699A4289DC3023013D2B7085E7102117
:103320006FE70A21DFF8D8E0002BDFD19EF80030EC
:1033300004F1420584F8423075E7642901D0692917
:1033400012D122680368150603F1040152D4550610
:103350004BBFB3F900301B6801600160002BB7DB85
:103360000A21DFF89CE04FE7012384F84210236133
:1033700004F14205002384F843306CE723681A0601
:1033800033D413F0400F036803F1040215BF1B8808
:103390001B68026002606F2914BF0A210821DFF850
:1033A00060E02EE703686268191D01601D68002156
:1033B000284601F0BBFD00B3401B60602061D9E7E7
:1033C0000122036804F14205191D1B68016084F89D
:1033D00042302261CEE701601B6805E7036862693D
:1033E000191D01601B681A6032E703681A1D02602C
:1033F0001B68D0E701601B68B0E76068DEE700BFCC
:10340000FCA7000810A800080EB430B5044682B02E
:1034100018B183690BB901F06BFC06AD2B46059A18
:10342000A1682046019502F0D5FA02B0BDE830400F
:1034300003B070470FB430B50A4B83B01C6824B199
:10344000A36913B9204601F053FC07AD2B46069A39
:10345000A1682046019502F0BDFA03B0BDE83040F6
:1034600004B070470400002010B5044682B028B1B3
:1034700083691BB9019101F03BFC01992046A268C8
:1034800002B0BDE8104002F0F3BB00BF38B5084BF6
:1034900005461C6824B1A36913B9204601F028FC35
:1034A0002946A2682046BDE8384002F0E1BB00BFD3
:1034B0000400002070B50D46064600283AD0836906
:1034C000002B35D084682B4B9C423DD02A4B9C422C
:1034D0004ED02A4B9C4208BFF468A3891B0737D5FE
:1034E0002369002B34D0013DA36815F8011F013B6F
:1034F000A360A1B1002B04DB23685A1C2260197061
:10350000F2E7A269934201DB0A29F5D1224630464F
:1035100000F04CF90130E7D14FF0FF3070BD002BC7
:103520001DDB0A2223681046591C21601A7070BDE9
:1035300001F0DEFBB369B468002BC4D1304601F062
:10354000D7FB0C4B9C42C1D17468A3891B07C7D41D
:103550002146304600F08CF90028C4D0DCE7224632
:1035600030460A2100F022F90130D5D00A2070BD82
:10357000B468B2E7BC9800089C9800087C980008E2
:10358000024B01461868FFF795BF00BF04000020FA
:1035900038B50023064C05460846236006F06AF855
:1035A000431C00D038BD2368002BFBD02B6038BDF6
:1035B0005802002010B580210446FFF74DF96064E1
:1035C00040B10022031F7C3043F8042F8342FBD11B
:1035D000002010BD4FF0FF3010BD00BF436C0BB199
:1035E00000207047E6E700BF1F29034609D810B541
:1035F000446C84B054B154F8210044F8212004B044
:1036000010BD16224FF0FF301A60704703900292EF
:103610000191FFF7CFFF20B9039B029A5C6C0199DF
:10362000E9E74FF0FF30EAE720B51F2982B00546F1
:1036300024D8426CAAB152F8213093B1012B0ED09C
:10364000581C07D00025084642F8215098472846C4
:1036500002B020BD162301202B6002B020BD002047
:10366000F6E72846019100F071F801990A460146F3
:10367000284602B0BDE8204000F054B816234FF0B1
:10368000FF302B60E4E700BF1F2926D820B5436C2C
:1036900082B00546BBB153F8212003EB810382B110
:1036A000501C0BD0012A06D0002508461D6090470B
:1036B000284602B020BD032002B020BD022002B087
:1036C00020BD0120F5E70191FFF774FF10B96B6C85
:1036D0000199E0E74FF0FF30EBE74FF0FF30704724
:1036E000024B01461868FFF79FBF00BF040000208F
:1036F000024B0A4601461868FFF776BF0400002017
:10370000034B1868436C0BB10020704752E700BFB1
:1037100004000020024B01461868FFF7B5BF00BF48
:103720000400002070B50D460023074C06461146E4
:103730002846236005F074FF431C00D070BD236849
:10374000002BFBD0336070BD5802002005F066BF2F
:1037500020F0030110F00300C0F1000051F8043B19
:1037600000F1040C4FEACC0C6FF000021CBF22FAEF
:103770000CF213434FF0010C4CEA0C2C4CEA0C4CAD
:10378000A3EB0C0222EA030212EACC1204BF51F8A6
:10379000043B0430F4D0C2F1000102EA0102B2FAA3
:1037A00082F2C2F11F0200EBD2007047F8B50D465D
:1037B0001446064610B18369002B42D0254B9C422B
:1037C00044D0254B9C4243D0244B9C4208BFF46814
:1037D000A269A389A2601A0722D5236903B32268CC
:1037E0006169D31AEDB28B422F4621DA0133A16809
:1037F000501C0139A1602060157062699A4206D0A0
:10380000A389DB0701D50A2D01D03846F8BD214632
:10381000304601F031F90028F7D04FF0FF37F4E7D8
:103820002146304600F024F80028F6D12369D6E777
:103830002146304601F020F90028EED1012322680C
:10384000D5E701F055FA034B9C42BAD17468BFE743
:10385000B468BDE7BC9800089C9800087C980008F4
:10386000024B0A4601461868FFF7A0BF040000207B
:10387000384B70B51D6806460C4615B1AB69002B78
:1038800042D0354B9C4245D0344B9C4258D0344BAF
:103890009C4208BFEC68B4F90C2093B219070CD510
:1038A0002069A8B113F001021ED000226369A26052
:1038B0005B42A361F0B1002070BDDD0642D5580720
:1038C0002AD4206942F00803A3819BB20028E9D1E1
:1038D00003F42072B2F5007FE4D03046214601F0B7
:1038E000E1FAA3892069DDE7990758BF6269A26000
:1038F0000028E0D1B4F90C301A06DDD543F04003BE
:10390000A3814FF0FF3070BD284601F0F1F9124B52
:103910009C42B9D16C68BEE7616B51B104F14403BC
:10392000994204D03046FEF74FFFB4F90C20002333
:1039300063630023206922F0240284E80900C1E7C0
:10394000AC68A8E7092342F0400233604FF0FF3033
:10395000A28170BD04000020BC9800089C9800085B
:103960007C980008000000002DE9F04F03690F6902
:1039700083B09F4200F38880013F01F1140600F1FB
:10398000140A56F827305AF827200133B2FBF3F80F
:10399000BB00009306EB030953440193B8F1000FF9
:1039A0003BD00023B4461C46D6465CF8042BDEF818
:1039B00000501FFA82FB08FB0B33120C4FEA134B2B
:1039C00008FB02BB9AB2A21AABB21FFA8BF41A44DC
:1039D000C4EB154404EB224492B242EA0442E145AE
:1039E0004EF8042B4FEA24444FEA1B43DDD2009BE0
:1039F0005AF803308BB9019C231F9A450CD254F816
:103A0000043C4BB9A4F1080302E01A68043B1AB95C
:103A10009A4507F1FF37F8D30761044601F044FDEA
:103A200000282DDB5546002308F1010856F8041B39
:103A300028688AB29A1A0B0C81B20A44C3EB10436D
:103A400003EB224392B242EA0342B14545F8042B0C
:103A50004FEA2343EAD25AF827200AEB87037AB9C0
:103A60001A1F92450BD253F8042C42B9083B02E0CE
:103A70001A68043B1AB99A4507F1FF37F8D3276152
:103A8000404603B0BDE8F08F002003B0BDE8F08FE2
:103A90002DE9F04F466A97B00446CDE90223239DF5
:103AA000002E00F0FA81336853B10122766819467E
:103AB000B2409A605E6001F0B3FA0022636A1A6055
:103AC000DDE90223002B99463EDB00232B60A64B49
:103AD00033EA09031AD0DDE90267002200233046E9
:103AE0003946FDF7FFF98046002835D00123229A98
:103AF0001360249B002B00F0C8809C4B249A03F198
:103B0000FF391360484617B0BDE8F08F42F20F73DB
:103B1000229A1360029B7BB9C9F3130363B9249BF8
:103B2000DFF85892002BEDD009F108034846249A9B
:103B3000136017B0BDE8F08F249BDFF84492002B90
:103B4000E0D009F10303F1E70123039A2B6022F08F
:103B50000049CDF80C90BAE714AA15AB0192009376
:103B600032463B46204601F0D5FD5FEA19558246B4
:103B70006FD03046C7F3130343F07F51CDF8348044
:103B8000DDF85080A5F2FF3541F440110022784B5A
:103B9000FCF78CFD6EA3D3E90023FCF73BFF6EA37B
:103BA000D3E90023FCF784FD064628460F46FCF7C0
:103BB000CBFE6BA3D3E90023FCF72CFF02460B4698
:103BC00030463946FCF774FD06460F4602F060FCAD
:103BD00000220690002330463946FDF78DF9002873
:103BE00040F06A81069E162E52D8DDE90223614913
:103BF00001EBC601D1E90001FDF79CF9002800F0B6
:103C0000C381731E069300230B93A8EB0505B5F142
:103C1000010B00F14B8100230493069B002BC0F2A3
:103C20005D819B440A9300230993209B092B32D882
:103C3000052B40F384860025043B2093209B023B08
:103C4000032B00F26786DFE813F0E403C602EF03FC
:103C50007F04DDF85080159D454405F23243202B4A
:103C600040F39481C3F1400309FA03F9029B05F282
:103C7000124023FA00F040EA0900FCF755FE012348
:103C8000013D0D93A1F1F87180E7DFF8F89039E775
:103C900001230B93B9E70025666A29467560204623
:103CA00001F08AF94FF0FF331A460793636A3060D8
:103CB000D3F800900123219520950C920893159B31
:103CC000002BC0F2CC80069A0E2A00F3C880294B44
:103CD00003EBC203D3E90023CDE90423219B002B8E
:103CE000C0F2BF83DDE90267DDE9042330463946CF
:103CF000FCF7BAFF02F0CCFB8046FCF725FEDDE9BD
:103D00000423FCF787FE02460B4630463946FCF793
:103D1000CDFC079E08F13005012E89F800500246BF
:103D20000B4609F101055ED00022134BFCF772FE31
:103D30000022002306460F46FDF7D4F800287BD169
:103D4000CDF808A00894DDE904AB079C29E000BF8A
:103D500061436F63A787D23FB3C8608B288AC63F91
:103D6000FB799F501344D33F0000F07FF9A7000870
:103D70000000F83FF09800080000244024A8000844
:103D800030A80008F8A700080022834BFCF742FE89
:103D90000022002306460F46FDF7A4F8002840F055
:103DA000D68352465B4630463946FCF75DFF02F04B
:103DB0006FFB8046FCF7C8FD52465B46FCF72AFEC7
:103DC00002460B4630463946FCF770FC08F13006D7
:103DD00005F8016BA5EB0906A64202460B46D3D1B6
:103DE000DDF808A0089C10461946FCF761FC064661
:103DF0000F4602460B46DDE90401FDF77DF848B9A0
:103E0000DDE9040132463B46FDF76CF8A0B118F03D
:103E1000010F11D015F8018C6B1E04E0994500F0DC
:103E20004B8413F8018DB8F1390F03F10105F5D07A
:103E300008F1010883F800805146204601F0F0F8AF
:103E40000022069B2A70229A01331360249B002BC8
:103E50003FF458AE48461D6017B0BDE8F08F089A91
:103E6000002A44D0209A012A40F32383079B099A11
:103E70005F1EBA42C0F2A883D71B079B002BC0F27B
:103E8000AD84049D079B049A01211A4420460492A4
:103E90009B4401F0BDF906462CE01020FEF790FB94
:103EA0006062466086600660C66009E6C5F101038F
:103EB00004934FF0000BB0E6DDF818904846FCF78D
:103EC00043FD02460B4630463946FDF70BF8002805
:103ED0007FF488AE09F1FF33069383E60023049A4A
:103EE0000A93069BD21A5B42049209939DE6099FAE
:103EF000049D089E002D0CDDBBF1000F09DD5D4522
:103F00002B46A8BF5B46049AED1AD21A0492ABEB7B
:103F1000030B099BD3B1089B002B00F0C382002F39
:103F200010DD31463A46204601F00EFA524601466F
:103F30000646204601F076F90346514620469A4649
:103F400001F06EF8099BDA1B40F0AD82012120469A
:103F500001F05EF90A9B8046002B1FDD01461A46E0
:103F6000204601F0F1F9209B8046012B40F35F824F
:103F700000230993D8F8103008EB8303186901F087
:103F8000F7F8C0F1200013E00B903EE6C3F12009E2
:103F9000029B03FA09F070E600002440209B012BED
:103FA00040F39082002309930A9B0120002BE1D16A
:103FB000584410F01F0000F0A380C0F12003042B30
:103FC00040F3C084C0F11C00049B054403440493E7
:103FD0008344049B002B05DD51461A46204601F020
:103FE0000FFA8246BBF1000F05DD41465A462046D6
:103FF00001F006FA80460B9B002B40F08380079B64
:10400000002B40F36F82089B002B00F09580002D61
:1040100005DD31462A46204601F0F2F90646099BA5
:10402000002B40F053830496079B4F46013B4B44C3
:104030000893029BCDF8289003F00103C146DDF8F8
:104040001080099349465046FFF78EFC31460546DD
:10405000504601F029FA424649468346204601F07F
:104060003FFAC26805F1300102910146002A40F092
:1040700034820790504601F017FA079B04901946C6
:10408000204600F0CDFF049A32B9209B23B9099B4A
:10409000002B00F00E84209ABBF1000FC0F2B48216
:1040A00005D1209B1BB9099B002B00F0AD82002A93
:1040B00000F320839DF8083007F1010B3B70089B4B
:1040C0005D469F4200F02683514600230A22204687
:1040D00000F0C2FF4645824631464FF000034FF0E4
:1040E0000A02204600F0F38100F0B6FF4146064682
:1040F00000230A22204600F0AFFF5F468046A1E77A
:104100001C2061E74146504601F0CEF90028BFF679
:1041100076AF069F514600230A222046013F0697AC
:1041200000F09AFF089B8246002B40F0D6830C9B40
:10413000002B40F3E38307934D46079F06E051466B
:1041400000230A22204600F087FF8246414650465F
:10415000FFF70AFC303005F8010BA5EB0903BB4261
:10416000EDDB079B4FF0000B012BACBF09EB030508
:1041700009F10105029051460122204601F040F963
:104180004146824601F090F9002840F35E8215F81E
:10419000012C6B1E04E04B4500F0C08113F8012D8B
:1041A000392A03F10105F6D001321A704146204642
:1041B00000F036FF002E3FF43FAEBBF1000F05D0FC
:1041C000B34503D05946204600F02AFF3146204629
:1041D00000F026FF30E600230893219A069B134443
:1041E0000C930133012B1A46B8BF01221E46964696
:1041F00007930021676ABEF1170F79600AD901227F
:1042000004235B0003F114007045114602F1010222
:10421000F7D97960204600F0CFFE636A0E2E386031
:10422000D3F800903FF64BAD002D3FF448ADDDE9EB
:1042300002230699CDE90E23002940F31282BB4BDD
:1042400001F00F0203EBC2030D11D3E90067EB0687
:1042500040F1C281DDE90E01B54B05F00F05D3E950
:104260000823FCF701FD0323CDE910010293A5B15A
:104270001294DFF8BC82029CE80708D5D8E9002335
:1042800030463946FCF7C6FB06460F4601346D1032
:1042900008F10808F0D10294129C3B46DDE91001B8
:1042A0003246FCF7E1FC074688460B9B43B10022EF
:1042B000A04B38464146FCF71FFE002840F0A08284
:1042C0000298FCF741FB3A464346FCF7A3FB9A4BA6
:1042D0000022FCF7EDF9A1F15073CDE9020103933F
:1042E000079B002B00F04781069B1293079B1093BE
:1042F000089B002B00F01982109A8C4B002003EBD6
:10430000C20353E902238D49FCF7AEFCDDE9022329
:10431000FCF7CCF9CDE902014146384602F0B8F885
:104320000546FCF711FB02460B4638464146FCF7B2
:10433000BDF930355FFA85F806460F4602460B4652
:10434000DDE9020189F8008009F10105FCF7F2FDC1
:1043500000285BD132463B4600207649FCF7A6F99F
:1043600002460B46DDE90201FCF7E4FD002840F0BF
:104370009982109A012A00F02181109BCDF84CB04F
:104380004B44CDF840A0A046DDE902ABCDF8089043
:1043900099460FE032463B4600206649FCF786F915
:1043A00052465B46FCF7A8FD002840F074824D455C
:1043B00000F0FD80504659460022614BFCF72AFB75
:1043C00000225F4B82468B4630463946FCF722FB83
:1043D0000F46064602F05CF80446FCF7B5FA0246C2
:1043E0000B4630463946FCF761F93034E4B205F843
:1043F000014B52465B4606460F46FCF77DFD002802
:10440000C8D04446DDF840A0DDF80890129B069322
:1044100012E500230893219B002B40F3E4809E4685
:104420001E460C930793E4E601230893F3E7029BEF
:10443000002B7FF49DADDDE90212C2F31303002BC4
:104440007FF4B0AD22F000473F0D3F05002F00F094
:104450002D82049B0BF1010B01330493012309937B
:10446000A2E5079B002B3FF73DAC40F04382DDE91E
:1044700004010022334BFCF7CDFADDE90223FCF7FF
:104480004FFDDDF81C80464600283ED0219B4D465E
:10449000DB4306934146204600F0C2FD002E3FF468
:1044A000CBAC93E6099A5146204600F04DFF824678
:1044B0004CE50D9A002A00F0978103F23343099FDF
:1044C000049DE0E4029B002B7FF46CADB3E700F0A9
:1044D000C3FD5F4606468046B4E5204600F0A0FDD9
:1044E0000122D9E5209B022B7FF78DAD079B002B86
:1044F000CCD141460522204600F0AEFD0146804663
:10450000504600F0D1FF0028C0DD3123069A89F81B
:1045100000300132069209F10105BBE73123069A0A
:1045200089F800300132069240E600BFF09800089A
:10453000E09900080000F03F00001C400000E03F50
:1045400000002440000014400123089345E6DDF8F4
:1045500008A0089C70E40298FCF7F6F93A46434636
:10456000FCF758FABC4B0022FCF7A2F8A1F15073FB
:10457000CDE902010393384641460022B74BFCF7D0
:1045800095F8029A039B06460F46FCF7D3FC80463B
:10459000002840F0C680DDE90201024601F1004337
:1045A00030463946FCF7A8FC40B146466EE7444623
:1045B000DDF84CB0DDF840A0DDF80890DDE90E2311
:1045C000CDE90223FFF77BBB099B0A9AFB1A1A4429
:1045D00009970A92002750E4DDE90E23CDE9102364
:1045E0000223029343E60023666A1946736020465D
:1045F00000F0E2FC01231A460793636A3060D3F8A7
:10460000009021920C920FE6002ACDF81080C84647
:10461000DDF8289012DD51460122204600F0F0FE20
:104620004146824600F040FF002840F34F81029B44
:10463000392B00F00B8105F1310302939DF808300E
:10464000B3463B707D1C049EB0E504D1029BDB07A2
:1046500001D59CE5154615F8013C6A1E302BF9D0B2
:10466000A4E500F0C880DDE90E01069B5D427C4BAD
:1046700005F00F0203EBC203D3E90023FCF7CAF9EC
:104680002D11074688464FF0020300F03C8110943C
:104690001C46744EE90708D5D6E900233846414642
:1046A000FCF7B8F90746884601346D1006F1080694
:1046B000F0D10294109CF8E5302289F80020069A87
:1046C00015F8018C01320692FFF7B2BB71682046E3
:1046D00000F072FC0546336906F10C0102339A00C2
:1046E0000C30FDF7ADFF29460122204600F088FE80
:1046F000049099E4029BCDF81080392BC846DDF870
:10470000289000F0A380029BB34601333B707D1CD0
:10471000049E4BE54346B346C8461E46DDF8289046
:1047200029E54FF000084646EFE610984C49DDE9D0
:10473000022301EBC00151E90201FCF76BF9CDE95D
:1047400002013846414601F0A3FE0546FCF7FCF89D
:1047500002460B4638464146FBF7A8FF064610982E
:104760003035012889F800500F4609F1010523D0A2
:10477000109BCDF840B04B44D3469A4600223A4BAA
:1047800030463946FCF746F90F46064601F080FEF2
:104790008046FCF7D9F802460B4630463946FBF70F
:1047A00085FF08F1300805F8018B554506460F4690
:1047B000E4D1DA46DDF840B00022DDE902012B4BFE
:1047C000FBF776FF32463B46FCF796FB00284FD0BE
:1047D000129B069315F8018CFFF71EBB049B079AEA
:1047E0009D1A0023FFF74FBB149B099FC3F13603AB
:1047F000049DFFF748BB0223DDE90E78029354E5E0
:10480000079B002B3FF4A7AE0C9D002D7FF7D6AE83
:104810000022154B38464146FCF7FCF8074688460F
:1048200002980130FCF790F83A464346FCF7F2F85C
:10483000094B0022FBF73CFF069BCDE90201013B3F
:104840001293A1F150730393109551E53922B346A9
:104850003A70049E7D1C9CE400001C400000144043
:10486000F0980008E0990008000024400000E03FB4
:10487000DDE9022300203849FBF718FF32463B46AA
:10488000FCF758FB08B999E6154615F8013C6A1E75
:10489000302BF9D0BAE54346A0461C46DDF840A0CF
:1048A000DDF80890129B0693FFF7B6BA0997FFF759
:1048B0007BBB029BCDF81080392BC846DDF82890D1
:1048C000C4D0BBF1000F3FF7B6AEB7E67FF4B6AE8B
:1048D000029BDA077FF5B2AEA9E6314600230A2231
:1048E000204600F0B9FB0C9B0646002B0DDD07931C
:1048F000FFF78DBB4FF000084646C7E5209B022B13
:1049000026DC0C9B17E40293CFE4209B022B1FDCD8
:104910000C9BECE70025666A29467560204600F08E
:104920004BFB4FF0FF331A460793636A3060D3F8AE
:104930000090012321950C920893FFF7C0B901253F
:10494000FFF77CB93FF445ABC0F13C00FFF73CBB3F
:104950000C9B0793CAE500BF0000E03F8B892DE95F
:10496000F0411A070D46804632D44A68002A67DDB6
:10497000EC6A002C45D00022D8F80060C8F800206E
:1049800013F4805260D06A6D5F0705D569686B6B60
:10499000521A0BB12B6CD21A0023296A4046A04749
:1049A000441C39D00021AB892A69DB0469602A6084
:1049B00044D4696BC8F8006019B305F14403994207
:1049C00002D04046FDF700FF00206863BDE8F0819B
:1049D0000E69B6B1980718BF00230C6808BF4B6971
:1049E0000E60A41B8B600AE023463246AF6A296A38
:1049F0004046B8470028A4EB0004064404DD002C20
:104A0000F2DC0020BDE8F081AB894FF0FF3043F0CD
:104A10004003AB81BDE8F081D8F800201D2AF3D80F
:104A2000144BD340DB4313F00103EDD1A9892C696A
:104A3000C9046B602C60BCD5002ABAD16865B8E7A0
:104A40000A6C002A94DCDCE70123296A4046A0476F
:104A5000431C024602D0AB89EC6A95E7D8F80030D7
:104A6000002BF8D01D2B01D0162BCDD1C8F800603B
:104A7000C7E700BF010040200B6933B310B50446FF
:104A800082B008B18369ABB1114B994219D0114B77
:104A9000994218D0104B994208BFE168B1F90C3027
:104AA00013B9002002B010BD204602B0BDE810408E
:104AB000FFF754BF019100F01BF90199044B994293
:104AC000E5D16168EAE7A168E8E70020704700BF28
:104AD000BC9800089C9800087C98000820B1054B01
:104AE00001461868FFF7C8BF034B0449186800F077
:104AF00043B900BF0400002078980008794A0008F4
:104B000000207047014900F037B900BF794A00081A
:104B10000020704770B568254A1E05FB02F50E4659
:104B200005F17401FDF798FE044640B100210C30F8
:104B3000666005F168022160A060FDF7F7FD204680
:104B400070BD00BF204B70B51D680646AB695BB3F6
:104B500048356B68AC68013B05D521E0013B5A1C28
:104B600004F168041CD0B4F90C20002AF6D1002509
:104B70004FF6FF720123E281A38165662560A5607F
:104B8000656025616561A5612946082204F15C0024
:104B9000FDF7CCFD6563A563A564E564204670BDA3
:104BA000286828B10546D4E7284600F00FF8CFE77B
:104BB00004213046FFF7AEFF28600028F2D10C2315
:104BC00004463360EAE700BF7898000800233D4AB6
:104BD0002DE9F04F126883649042C364036508BFF7
:104BE0000123394983B008BF836181620746FFF71B
:104BF000A9FF78603846FFF7A5FFB8603846002463
:104C0000FFF7A0FF04237D68F86021462C606C60EC
:104C1000AC606C66EC812C616C61AC61AB8105F1C0
:104C20005C000822FDF782FD01230922BE68DFF83F
:104C30009CB0DFF89CA0DFF89C90DFF89C80C5F862
:104C400024B0C5F828A0C5F82C90C5F830802D6296
:104C50002146F381B28134607460B460746634615B
:104C60007461B46106F15C0008220193FDF75EFDFA
:104C700012200222FD6821463662C6F824B0C6F82A
:104C800028A0C6F82C90C6F83080A881EA812C6054
:104C90006C60AC606C662C616C61AC6105F15C00B1
:104CA0000822FDF743FD019B2D62C5F824B0C5F82D
:104CB00028A0C5F82C90C5F83080BB6103B0BDE8D2
:104CC000F08F00BF78980008054B0008595D000878
:104CD000815D0008BD5D0008DD5D0008024B0349F1
:104CE000186800F049B800BF78980008794A0008B1
:104CF000836903B96AE77047704700BF704700BF18
:104D0000704700BF704700BF024B0349186800F0AE
:104D10000FB800BF04000020114B0008024B0349EC
:104D2000186800F005B800BF04000020014B00081F
:104D30002DE9F04110F148071AD0884600267D6819
:104D4000BC68013D0ED4A389013D012B06D9B4F9FD
:104D50000E30013302D02046C04706436B1C04F1DD
:104D60006804F0D13F68002FE9D13046BDE8F081FA
:104D70003E463046BDE8F0812DE9F84310F1480683
:104D80001ED0884607464FF000097568B468013D9B
:104D900010D4A389013D012B08D9B4F90E30013399
:104DA00004D021463846C04749EA00096B1C04F18B
:104DB0006804EED13668002EE7D14846BDE8F88396
:104DC000B1464846BDE8F883B2B110B50B4910466C
:104DD000144601F007F808B9094810BD08492046F3
:104DE00001F000F80028F7D02046064900F0FAFF4D
:104DF0000028F1D0002010BD0148704734A80008F9
:104E0000E4A70008409A00080048704768000020A6
:104E1000014B186A704700BF6800002000487047C7
:104E20008C0000200020704700487047AC00002034
:104E3000024B0A4601461868FFF7C6BF040000206F
:104E400000487047AC00002070B50C46B1F90E1058
:104E500090B0002915461E4613DB01AA01F0C8F8E0
:104E600000280EDB029A4FF4806302F47042A2F530
:104E70000052B2FA82F20020520932602B6010B068
:104E800070BD0022A38932601B0604D54023002098
:104E90002B6010B070BD4FF4806300202B6010B009
:104EA00070BD00BF8A890B46920706D5012103F128
:104EB000470259611A601A617047F0B583B001ABBF
:104EC0006A460C460546FFF7BFFF0099064628468E
:104ED000FDF7C2FCB4F90C30D0B19DE80600124FCA
:104EE00043F08003AF62A3812060206161611AB941
:104EF0003343A38103B0F0BD2846B4F90E1001F08E
:104F000005FAB4F90C300028F2D043F00103EFE7C2
:104F10009A05EFD4012104F1470243F00203A38173
:104F2000616122602261E5E7054B0008830770B4E8
:104F3000CDB23DD0541E0AB30378AB421FD0431C00
:104F400005E014F1FF3419D30278AA4217D013F008
:104F5000030F184603F10103F3D1032C11D84CB30E
:104F60000378AB420BD00444431C02E00278AA420F
:104F700005D09C42184603F10103F7D1002070BC14
:104F80007047090289B2294341EA01410368064694
:104F90004B40A3F1013222EA030313F0803F00F1FA
:104FA000040003D1043C032CF0D8D8E73046D7E7FF
:104FB0001446D2E72046E2E770B5446A06460D463D
:104FC0005CB1E36893B153F82500D8B1026843F8A7
:104FD000252000230361C36070BD1020FDF7F0FAA7
:104FE0007062446084600460C4600446212204212D
:104FF000304600F07DFC736AE060DB68002BE2D194
:10500000002070BD012101FA05F4621D30469200B6
:1050100000F06EFC0028F3D045608460D9E700BF43
:1050200030B5456A83B0044655B139B1636A4A6800
:10503000DB6853F82200086043F8221003B030BD4B
:1050400010200191FDF7BCFA01996062456085600E
:105050000560C560E9E700BFF0B50C4605464FF0B6
:10506000000E0E6983B001F1140738680EF1010ECD
:1050700081B202FB0133010C180C02FB01019BB24F
:1050800003EB0143764547F8043B4FEA1143ECDC60
:105090003BB1A268964207DA04EB860201365361FF
:1050A0002661204603B0F0BD6168284601310193B6
:1050B000FFF782FF0746226904F10C0102329200D9
:1050C0000C30FDF7BDFA21462846FFF7A9FF3C4604
:1050D000019BE1E72DE9F843244C1F46083384FB8C
:1050E000034EDB17C3EB6E0EBEF1010F05460C46F7
:1050F0009046089E35DD012300215B009E4501F1AD
:105100000101FADC2846FFF757FF0123B8F1090F28
:105110004661036121DD04F109094E46444416F855
:10512000013B0146303B0A222846FFF795FFA64285
:10513000F5D1A8F108044C44474514DDA7EB080756
:10514000274414F8013B0146303B0A222846FFF76A
:1051500083FFA742F5D1BDE8F8830A344FF0090870
:10516000EAE70021CEE7BDE8F88300BF398EE338D7
:10517000020C12040346B2B90304102013F07F4F4F
:1051800004BF1B02083013F0704F04BF1B01043032
:1051900013F0404F04BF9B000230002B02DB5B008A
:1051A00003D4202070470020E8E70130704700BF9B
:1051B0000368014613F0070207D0DA0721D49807E5
:1051C00021D49B080B600220704798B298B110461A
:1051D00013F0FF0F04BF1B0A08301A0704BF1B0996
:1051E00004309A0704BF9B080230DA0707D45B0833
:1051F00004D1202070471B0C1020E9E701300B6020
:105200007047002070475B080B600120704700BFAB
:1052100010B50C460121FFF7CFFE01224461026167
:1052200010BD00BF2DE9F04F0C69156983B0AC4289
:105230008B46164604DA2246B3462C460E461546E1
:10524000DBF8083004EB0508DBF804109845C8BF0C
:105250000131FFF7B1FE00F1140909EB880AD145CD
:10526000009005D24B46002143F8041B9A45FBD819
:1052700006F1140C0CEB85030BF1140B9C450BEBA6
:10528000840E4BD2CDF804A09A46DCF80050AFB2A1
:10529000E7B14D465E46002156F8042B286893B2CC
:1052A00084B2120C07FB0343000C07FB02020B4401
:1052B00002EB13419BB243EA0143B64545F8043B78
:1052C0004FEA1141E8D82960DCF800502D0C1DD0C0
:1052D000D9F8003048461C46594600220E88240C56
:1052E00005FB06449BB2224443EA024340F8043BD8
:1052F00051F8043B04681B0CA6B205FB03638E4502
:1053000003EB12434FEA1342E8D803600CF1040C9C
:10531000E24509F10409B8D8DDF804A0B8F1000F9E
:105320000BDD5AF8043CAAF1040A1BB105E05AF857
:10533000043D13B9B8F10108F9D10098C0F8108004
:1053400003B0BDE8F08F00BF2DE9F04112F0030378
:1053500082B0144607462DD10E46A4101CD07B6A9D
:105360008BB39D68002D39D0E3074FF0000806D4B9
:10537000641011D0286898B10546E307F8D5314686
:105380002A463846FFF74EFF0346314638461E464A
:10539000FFF746FE6410EDD1304602B0BDE8F08163
:1053A0002A4629463846FFF73DFF2860C0F80080AE
:1053B0000546E2E7114A013B52F823200023FFF79C
:1053C0004BFE0646C9E710200193FDF7F9F8019B53
:1053D0007862436083600360C360034601213846FE
:1053E0000193FFF7E9FD01210546002240F27120FB
:1053F000019B686129619D602A60B5E7E09800081B
:105400000B692DE9F0474FEA621A0AEB03088B6833
:1054100008F101049C420D4691460746496804DDA7
:105420005B009C4201F10101FADC3846FFF7C4FD44
:10543000BAF1000F064600F1140332DD002203EB3F
:105440008A0143F8042B8B42FBD1286905F1140330
:1054500019F01F0903EB800E1BD00022C9F1200CAC
:10546000186800FA09F0104341F8040B53F8042BB4
:105470009E4522FA0CF2F3D80A600AB108F1020440
:10548000013C384634612946FFF7CAFD3046BDE885
:10549000F087043953F8042B9E4541F8042FF9D8BE
:1054A000EEE71946D1E700BF30B40B690546006945
:1054B000C01A0FD19B001435143119442B4401E05C
:1054C0009D4207D253F8044D51F8042D9442F7D071
:1054D00002D3012030BC70474FF0FF30FAE700BF25
:1054E0002DE9F84F0C69894611699246641A002C1F
:1054F00017D1890009F1140702F114067B18314411
:1055000001E09F4265D253F8045D51F8042D9542A5
:10551000F7D067D24B46BB46D14637469A46012460
:1055200005E061DB002409F114070AF1140BD9F836
:105530000410FFF741FD5D464FF00008D9F810E078
:10554000DAF810303E46C4600BEB830C07EB8E0795
:1055500000F1140456F8049B55F8042B1FFA89F344
:1055600043441FFA82F8120CA3EB0803C2EB194262
:1055700002EB23429BB243EA0243AC4544F8043BAE
:105580004FEA2248E6D8B74217D9A446354655F81F
:10559000043B99B241440A1402EB134289B241EA36
:1055A0000243AF424CF8043B4FEA2248EFD8F6439F
:1055B000374427F0030704373C44043C2BB954F824
:1055C000043D0EF1FF3E002BF9D0C0F810E0BDE81D
:1055D000F88F0021FFF7F0FC0122002302614361F4
:1055E000BDE8F88FB346A2E74B4609F1140B02F170
:1055F0001407914601249A4699E700BF0F4B0B40D0
:10560000A3F15073002B02DD0020194670475B4266
:105610001B15132B0BDD143B1E2BD7BF01220123BF
:10562000C3F11F0302FA03F30021184670474FF439
:105630000022002042FA03F1704700BF0000F07F13
:105640002DE9F041076900F1140606EB870757F8CA
:10565000048C4046FFF78CFDC0F120030A280B6044
:10566000A7F1040318DCC0F10B0128FA01F29E42F5
:1056700042F07F552CBF002257F8082C00F115038B
:1056800038BFCA4008FA03F345F4401543EA020460
:1056900020462946BDE8F0819E4220D2B0F10B029F
:1056A00057F8083C1FD008FA02F848F07F58C2F1BA
:1056B000200EA7F1080148F4401823FA0EF08E429C
:1056C00048EA000521D257F80C1C03FA02F021FA2F
:1056D0000EF20243144620462946BDE8F081B0F19F
:1056E0000B0209D113461C4648F07F5545F440157E
:1056F00020462946BDE8F08108FA02F0002240F079
:105700007F5545F440151446E5E703FA02F21446C6
:10571000E1E700BFF0B5012183B01C46C3F30A5591
:105720001646FFF749FCC4F3130407460DB144F4D1
:105730008014019406B302A840F8086DFFF738FD05
:10574000002830D19DE80C007A61002B0CBF0121AC
:105750000221BB613961D5B9089A07EB8103A0F238
:10576000324010601869FFF703FD099BC0EB411040
:105770001860384603B0F0BD01A8FFF719FD0122FB
:10578000019B114620303A617B61002DE4D0A5F2E7
:105790003343089A03441360099BC0F13500186035
:1057A000384603B0F0BD019BC0F12002009903FA16
:1057B00002F20A43C34001937A61C6E72DE9F04340
:1057C00083B00F4669460646FFF73AFF04460D468A
:1057D000384601A9FFF734FF36693A6989469DE8E2
:1057E0000A00B61ACB1A03EB4613002B80460BDDDA
:1057F00005EB03573D4642464B4620462946FBF7FC
:1058000033FA03B0BDE8F083C3EB033309EB035174
:105810008946F0E71728D0B504460ADD00200026A7
:105820000749084F32463B46FBF7F4F8013CF9D1F3
:10583000D0BD054B03EBC004D4E90401D0BD00BFCB
:105840000000F03F00002440E098000870B41469A4
:105850004E1E02F11403761103EB840101368B42D4
:1058600000EB86060CD2041F53F8045B994244F8FF
:10587000045FF9D88B1A153B23F003030433184453
:10588000864204D9002340F8043B8642FBD870BC12
:10589000704700BF03694A11934210B400F1140429
:1058A0000FDA04EB83039C421FD253F8040C043B31
:1058B00018B114E053F8042D8AB99C42FAD310BCF5
:1058C00070470FDD11F01F010CD054F8220004EBDB
:1058D000820320FA01F202FA01F18842E3D00120AA
:1058E00010BC704704EB8203DDE70020E7E700BF50
:1058F00038B502FB01F42146FCF7AEFF054618B1AE
:1059000022460021FCF712FF284638BDF8B51446A0
:10591000F9B1C2B106460D4600F084FD844201D8BB
:105920002846F8BD21463046FCF796FF074670B181
:1059300022462946FCF784FE29463D463046FCF7C0
:1059400043FF2846F8BDFCF73FFF2546E8E705463C
:10595000E6E71146BDE8F840FCF77EBF936810B457
:10596000013B002B936007DBCCB21368581C10601E
:105970001970204610BC70479469A34202DBCCB278
:105980000A2CF2D110BCFDF711BF00BF93B1F8B5DE
:1059900014460F460646D51801E0AC4208D03A46F8
:1059A00014F8011B3046FFF7D9FF431CF5D1F8BDB1
:1059B0000020F8BD00207047936810B5144613B955
:1059C0005360184610BD00F027FB0023A3606360FE
:1059D00010BD00BF2DE9F04F9DB00F4691460393D7
:1059E000804618B18369002B00F01981924B9F42C9
:1059F00000F01B81914B9F4200F01A81904B9F4217
:105A000008BFD8F80C70BB891C0740F1FE803B69C9
:105A1000002B00F0FA803023002120228DF82A305C
:105A200099F8003009918DF82920864C0125002B2A
:105A300000F09180252BCA4603D119E0252B00F0F8
:105A400091801AF8013F002BF8D1BAEB090B00F056
:105A500082804A465B4639464046FFF797FF013051
:105A600079D0099B9AF800205B440993002A72D0F0
:105A700000234FF0FF320AF1010A049307930693C3
:105A80008DF853301A93059205E0049B001B05FA2C
:105A900000F0184304909AF8001005222046FFF702
:105AA00045FAD1460AF1010A0028EED1049BD80636
:105AB00044BF20228DF85320190748BF2B2299F8A4
:105AC000001048BF8DF853202A296FD0A1F1300271
:105AD000092A0BD8079B19F8011F03EB830302EB7C
